:100000000C9446000C9465000C9465000C946500FB
:100010000C9465000C9465000C9465000C946500CC
:100020000C9457010C9465000C9465000C946500C9
:100030000C9465000C9465000C9465000C946500AC
:100040000C9465000C9465000C9465000C9465009C
:100050000C9465000C9465000C9465000C9465008C
:100060000C9465000C9465000C9465000C9465007C
:100070000C9465000C9465000C9465000C9465006C
:100080000C9465000C9465000C94650011241FBE4F
:10009000CFEFD0E1DEBFCDBF11E0A0E0B1E0E0E8FE
:1000A000F4E000E00BBF02C007900D92A430B1074E
:1000B000D9F721E0A4E0B1E001C01D92AD30B20754
:1000C000E1F70E94CE010C943E020C9400008FB91F
:1000D000779BFECF8FB10895CF93DF931F92CDB75B
:1000E000DEB7C098806269830E9467006981862FAD
:1000F0000E946700C09A0F90DF91CF910895EF9210
:100100000F93CF93DF9300D01F92CDB7DEB7C09887
:1001100080622B834A8369830E9467006981862FEE
:100120000E9467004A81842F0E9467002B81822FE2
:100130000E946700802F0E9467008E2D0E9467003A
:10014000C09A0F900F900F90DF91CF910F91EF9089
:100150000895C0980E94670080E00E946700C09ADE
:100160000895C0980E946700C09A0895CF93C82F41
:10017000C09880EA0E9467008C2F0E946700C09A96
:10018000CF910895FF920F931F93CF93DF93082F82
:10019000EB01C09880EA0E946700F12C10E02F2D3F
:1001A000332727FD30952017310744F4FE01E20F75
:1001B000F31F80810E946700F394F1CFC09ADF9112
:1001C000CF911F910F91FF900895C09881E60E94F2
:1001D000670080E00E946700C09A0895DF92EF9266
:1001E000FF920F931F93CF93DF93E82EEB01C098FC
:1001F00081E60E946700D12CF12C2D2D332727FD9D
:1002000030952E153F0554F48E01020F131F80E028
:100210000E946700F8018083D394EFCFC09ADF91EA
:10022000CF911F910F91FF90EF90DF90089587E29B
:1002300087BB80E58DB90895C59861E085E00E948F
:100240006C0060E081E10E946C0068E082E10E9445
:100250006C0060E083E10E946C0060E084E10E9439
:100260006C0060E085E10E946C0060E086E10E9425
:100270006C0066E086E00E946C0068E480E00E940A
:100280006C0063E081E00E946C0063E082E00E9409
:100290006C006FE284E00E946C0081EE0E94B1006D
:1002A00082EE0E94B10060E787E00C946C001F9220
:1002B0000F920FB60F9211240BB60F922F933F930C
:1002C0004F935F936F937F938F939F93AF93BF935E
:1002D000CF93DF93EF93FF93F89487E00E94A900F8
:1002E00080930C01C59880910C0185FF35C060E7B3
:1002F00087E00E946C006BE780E00E946C0082EE59
:100300000E94B1008FEA94E00197F1F700C000006D
:10031000C59A909A87E083BFD1E0C2B787E00E9478
:10032000A90086FB882780F98D1711F0CF3FA9F728
:10033000C598909812BE13BE60E787E00E946C00DB
:1003400064E071E088E00E94EE00809108018BBBC0
:1003500082EE0E94B1000AC080910C0184FD02C0AF
:100360008FEF8BBB60E787E00E946C001092020168
:100370007894FF91EF91DF91CF91BF91AF919F91D1
:100380008F917F916F915F914F913F912F910F903E
:100390000BBE0F900FBE0F901F9018958FEF8ABB6A
:1003A00081BB0E9417018FED9BEA0197F1F700C016
:1003B00000000E941C01C59880E88ABF89BF78941C
:1003C00087EEE82E07EE27EE47EE67EE80E10E940B
:1003D0007F0027EE47EE67EE8AE00E947F0097EDF0
:1003E000E92E07ED27ED47ED67ED8BE00E947F00DA
:1003F0006AE480E00E946C008FE39FE10197F1F7CF
:1004000000C0000082EE0E94B10081EE0E94B100A7
:100410009FEF23ED80E3915020408040E1F700C042
:100420000000C1E0D0E0FF24F394CF3FD10511F4E8
:10043000C0E0D0E0C5986AE480E00E946C0060E70C
:1004400087E00E946C0081EE0E94B1008E010F5F78
:100450001F4F8C2F0E94B600C59AF0920201809126
:1004600002018111FCCF9FEF21EE84E091502040EA
:100470008040E1F700C00000E801D7CFF894FFCF3B
:040480000200010075
:00000001FF
